{
  "_format": "hh-sol-artifact-1",
  "contractName": "LendingProtocol",
  "sourceName": "contracts/LendingProtocol.sol",
  "abi": [
    {
      "inputs": [
        {
          "internalType": "address",
          "name": "usdcAddress",
          "type": "address"
        },
        {
          "internalType": "address",
          "name": "ethAddress",
          "type": "address"
        },
        {
          "internalType": "address",
          "name": "_priceFeed",
          "type": "address"
        }
      ],
      "stateMutability": "nonpayable",
      "type": "constructor"
    },
    {
      "inputs": [
        {
          "internalType": "address",
          "name": "token",
          "type": "address"
        }
      ],
      "name": "SafeERC20FailedOperation",
      "type": "error"
    },
    {
      "anonymous": false,
      "inputs": [
        {
          "indexed": true,
          "internalType": "address",
          "name": "user",
          "type": "address"
        },
        {
          "indexed": false,
          "internalType": "uint256",
          "name": "borrowedAmount",
          "type": "uint256"
        }
      ],
      "name": "Borrowed",
      "type": "event"
    },
    {
      "anonymous": false,
      "inputs": [
        {
          "indexed": true,
          "internalType": "address",
          "name": "user",
          "type": "address"
        },
        {
          "indexed": false,
          "internalType": "uint256",
          "name": "amount",
          "type": "uint256"
        }
      ],
      "name": "CollateralDeposited",
      "type": "event"
    },
    {
      "anonymous": false,
      "inputs": [
        {
          "indexed": true,
          "internalType": "address",
          "name": "user",
          "type": "address"
        },
        {
          "indexed": true,
          "internalType": "address",
          "name": "liquidator",
          "type": "address"
        },
        {
          "indexed": false,
          "internalType": "uint256",
          "name": "repayAmount",
          "type": "uint256"
        },
        {
          "indexed": false,
          "internalType": "uint256",
          "name": "rewardAmount",
          "type": "uint256"
        }
      ],
      "name": "Liquidated",
      "type": "event"
    },
    {
      "inputs": [],
      "name": "LIQUIDATION_THRESHOLD",
      "outputs": [
        {
          "internalType": "uint256",
          "name": "",
          "type": "uint256"
        }
      ],
      "stateMutability": "view",
      "type": "function"
    },
    {
      "inputs": [],
      "name": "STALE_PRICE_TOLERANCE",
      "outputs": [
        {
          "internalType": "uint256",
          "name": "",
          "type": "uint256"
        }
      ],
      "stateMutability": "view",
      "type": "function"
    },
    {
      "inputs": [
        {
          "internalType": "address",
          "name": "",
          "type": "address"
        }
      ],
      "name": "balanceOf",
      "outputs": [
        {
          "internalType": "uint256",
          "name": "",
          "type": "uint256"
        }
      ],
      "stateMutability": "view",
      "type": "function"
    },
    {
      "inputs": [
        {
          "internalType": "uint256",
          "name": "borrowedAmount",
          "type": "uint256"
        }
      ],
      "name": "borrow",
      "outputs": [],
      "stateMutability": "nonpayable",
      "type": "function"
    },
    {
      "inputs": [
        {
          "internalType": "address",
          "name": "",
          "type": "address"
        }
      ],
      "name": "debtOf",
      "outputs": [
        {
          "internalType": "uint256",
          "name": "",
          "type": "uint256"
        }
      ],
      "stateMutability": "view",
      "type": "function"
    },
    {
      "inputs": [
        {
          "internalType": "uint256",
          "name": "amount",
          "type": "uint256"
        }
      ],
      "name": "depositCollateral",
      "outputs": [],
      "stateMutability": "nonpayable",
      "type": "function"
    },
    {
      "inputs": [
        {
          "internalType": "address",
          "name": "user",
          "type": "address"
        }
      ],
      "name": "getAccountHealth",
      "outputs": [
        {
          "internalType": "uint256",
          "name": "",
          "type": "uint256"
        }
      ],
      "stateMutability": "view",
      "type": "function"
    },
    {
      "inputs": [
        {
          "internalType": "address",
          "name": "user",
          "type": "address"
        }
      ],
      "name": "getAccountSummary",
      "outputs": [
        {
          "internalType": "uint256",
          "name": "",
          "type": "uint256"
        },
        {
          "internalType": "uint256",
          "name": "",
          "type": "uint256"
        },
        {
          "internalType": "uint256",
          "name": "",
          "type": "uint256"
        }
      ],
      "stateMutability": "view",
      "type": "function"
    },
    {
      "inputs": [
        {
          "internalType": "address",
          "name": "user",
          "type": "address"
        }
      ],
      "name": "getBorrowableAmount",
      "outputs": [
        {
          "internalType": "uint256",
          "name": "",
          "type": "uint256"
        }
      ],
      "stateMutability": "view",
      "type": "function"
    },
    {
      "inputs": [],
      "name": "getLatestPrice",
      "outputs": [
        {
          "internalType": "uint256",
          "name": "",
          "type": "uint256"
        }
      ],
      "stateMutability": "view",
      "type": "function"
    },
    {
      "inputs": [
        {
          "internalType": "address",
          "name": "user",
          "type": "address"
        }
      ],
      "name": "isLiquidatable",
      "outputs": [
        {
          "internalType": "bool",
          "name": "",
          "type": "bool"
        }
      ],
      "stateMutability": "view",
      "type": "function"
    },
    {
      "inputs": [
        {
          "internalType": "address",
          "name": "user",
          "type": "address"
        },
        {
          "internalType": "uint256",
          "name": "repayAmount",
          "type": "uint256"
        }
      ],
      "name": "liquidate",
      "outputs": [],
      "stateMutability": "nonpayable",
      "type": "function"
    },
    {
      "inputs": [],
      "name": "mEth",
      "outputs": [
        {
          "internalType": "contract IERC20",
          "name": "",
          "type": "address"
        }
      ],
      "stateMutability": "view",
      "type": "function"
    },
    {
      "inputs": [],
      "name": "mEthMintable",
      "outputs": [
        {
          "internalType": "contract IMintableERC20",
          "name": "",
          "type": "address"
        }
      ],
      "stateMutability": "view",
      "type": "function"
    },
    {
      "inputs": [],
      "name": "mUsdc",
      "outputs": [
        {
          "internalType": "contract IERC20",
          "name": "",
          "type": "address"
        }
      ],
      "stateMutability": "view",
      "type": "function"
    },
    {
      "inputs": [],
      "name": "mUsdcMintable",
      "outputs": [
        {
          "internalType": "contract IMintableERC20",
          "name": "",
          "type": "address"
        }
      ],
      "stateMutability": "view",
      "type": "function"
    },
    {
      "inputs": [],
      "name": "oracleDecimals",
      "outputs": [
        {
          "internalType": "uint8",
          "name": "",
          "type": "uint8"
        }
      ],
      "stateMutability": "view",
      "type": "function"
    },
    {
      "inputs": [],
      "name": "priceFeed",
      "outputs": [
        {
          "internalType": "contract AggregatorV3Interface",
          "name": "",
          "type": "address"
        }
      ],
      "stateMutability": "view",
      "type": "function"
    }
  ],
  "bytecode": "0x608060405234801561001057600080fd5b506040516122c93803806122c98339818101604052810190610032919061028c565b82600260006101000a81548173ffffffffffffffffffffffffffffffffffffffff021916908373ffffffffffffffffffffffffffffffffffffffff16021790555082600060016101000a81548173ffffffffffffffffffffffffffffffffffffffff021916908373ffffffffffffffffffffffffffffffffffffffff16021790555081600360006101000a81548173ffffffffffffffffffffffffffffffffffffffff021916908373ffffffffffffffffffffffffffffffffffffffff16021790555081600160006101000a81548173ffffffffffffffffffffffffffffffffffffffff021916908373ffffffffffffffffffffffffffffffffffffffff16021790555080600660006101000a81548173ffffffffffffffffffffffffffffffffffffffff021916908373ffffffffffffffffffffffffffffffffffffffff160217905550600660009054906101000a900473ffffffffffffffffffffffffffffffffffffffff1673ffffffffffffffffffffffffffffffffffffffff1663313ce5676040518163ffffffff1660e01b8152600401602060405180830381865afa1580156101e4573d6000803e3d6000fd5b505050506040513d601f19601f820116820180604052508101906102089190610318565b6000806101000a81548160ff021916908360ff160217905550505050610345565b600080fd5b600073ffffffffffffffffffffffffffffffffffffffff82169050919050565b60006102598261022e565b9050919050565b6102698161024e565b811461027457600080fd5b50565b60008151905061028681610260565b92915050565b6000806000606084860312156102a5576102a4610229565b5b60006102b386828701610277565b93505060206102c486828701610277565b92505060406102d586828701610277565b9150509250925092565b600060ff82169050919050565b6102f5816102df565b811461030057600080fd5b50565b600081519050610312816102ec565b92915050565b60006020828403121561032e5761032d610229565b5b600061033c84828501610303565b91505092915050565b611f75806103546000396000f3fe608060405234801561001057600080fd5b50600436106101165760003560e01c806390a8ae9b116100a2578063c5ebeaec11610071578063c5ebeaec146102e7578063d283e75f14610303578063e59e801814610333578063e68b52e714610363578063ee448f0c1461038157610116565b806390a8ae9b14610273578063bad4a01f14610291578063bcbaf487146102ad578063c40d997f146102c957610116565b8063691d1eb3116100e9578063691d1eb3146101b957806370a08231146101e9578063741bef1a1461021957806378dbc20e146102375780638e15f4731461025557610116565b8063042e02cf1461011b5780631e9131361461014b5780633e259a321461016957806343ad297714610187575b600080fd5b610135600480360381019061013091906113db565b61039f565b6040516101429190611423565b60405180910390f35b6101536103b9565b604051610160919061149d565b60405180910390f35b6101716103df565b60405161017e919061149d565b60405180910390f35b6101a1600480360381019061019c91906113db565b610405565b6040516101b0939291906114d1565b60405180910390f35b6101d360048036038101906101ce91906113db565b6104b1565b6040516101e09190611508565b60405180910390f35b61020360048036038101906101fe91906113db565b6105a3565b6040516102109190611508565b60405180910390f35b6102216105bb565b60405161022e9190611544565b60405180910390f35b61023f6105e1565b60405161024c9190611508565b60405180910390f35b61025d6105e7565b60405161026a9190611508565b60405180910390f35b61027b6106dc565b6040516102889190611508565b60405180910390f35b6102ab60048036038101906102a6919061158b565b6106e1565b005b6102c760048036038101906102c291906115b8565b61081a565b005b6102d1610bf4565b6040516102de9190611619565b60405180910390f35b61030160048036038101906102fc919061158b565b610c1a565b005b61031d600480360381019061031891906113db565b610e39565b60405161032a9190611508565b60405180910390f35b61034d600480360381019061034891906113db565b610e51565b60405161035a9190611508565b60405180910390f35b61036b6110b2565b6040516103789190611650565b60405180910390f35b6103896110c3565b6040516103969190611619565b60405180910390f35b6000806103ab83610e51565b905060788110915050919050565b600160009054906101000a900473ffffffffffffffffffffffffffffffffffffffff1681565b600060019054906101000a900473ffffffffffffffffffffffffffffffffffffffff1681565b600080600080600460008673ffffffffffffffffffffffffffffffffffffffff1673ffffffffffffffffffffffffffffffffffffffff1681526020019081526020016000205490506000600560008773ffffffffffffffffffffffffffffffffffffffff1673ffffffffffffffffffffffffffffffffffffffff168152602001908152602001600020549050600061049c876104b1565b90508282829550955095505050509193909250565b600080600460008473ffffffffffffffffffffffffffffffffffffffff1673ffffffffffffffffffffffffffffffffffffffff16815260200190815260200160002054905060006105006105e7565b905060008060009054906101000a900460ff16600a61051f91906117cd565b828461052b9190611818565b6105359190611889565b9050600060966064836105489190611818565b6105529190611889565b905060008311610597576040517f08c379a000000000000000000000000000000000000000000000000000000000815260040161058e90611917565b60405180910390fd5b80945050505050919050565b60046020528060005260406000206000915090505481565b600660009054906101000a900473ffffffffffffffffffffffffffffffffffffffff1681565b61070881565b6000806000600660009054906101000a900473ffffffffffffffffffffffffffffffffffffffff1673ffffffffffffffffffffffffffffffffffffffff1663feaf968c6040518163ffffffff1660e01b815260040160a060405180830381865afa158015610659573d6000803e3d6000fd5b505050506040513d601f19601f8201168201806040525081019061067d91906119c4565b50935050925050610708426106929190611a3f565b8110156106d4576040517f08c379a00000000000000000000000000000000000000000000000000000000081526004016106cb90611abf565b60405180910390fd5b819250505090565b607881565b60008111610724576040517f08c379a000000000000000000000000000000000000000000000000000000000815260040161071b90611b2b565b60405180910390fd5b610773333083600360009054906101000a900473ffffffffffffffffffffffffffffffffffffffff1673ffffffffffffffffffffffffffffffffffffffff166110e9909392919063ffffffff16565b80600460003373ffffffffffffffffffffffffffffffffffffffff1673ffffffffffffffffffffffffffffffffffffffff16815260200190815260200160002060008282546107c29190611b4b565b925050819055503373ffffffffffffffffffffffffffffffffffffffff167fd7243f6f8212d5188fd054141cf6ea89cfc0d91facb8c3afe2f88a13584801428260405161080f9190611508565b60405180910390a250565b600560008373ffffffffffffffffffffffffffffffffffffffff1673ffffffffffffffffffffffffffffffffffffffff1681526020019081526020016000205481111561089c576040517f08c379a000000000000000000000000000000000000000000000000000000000815260040161089390611bcb565b60405180910390fd5b6108a58261039f565b6108e4576040517f08c379a00000000000000000000000000000000000000000000000000000000081526004016108db90611c37565b60405180910390fd5b610933333083600260009054906101000a900473ffffffffffffffffffffffffffffffffffffffff1673ffffffffffffffffffffffffffffffffffffffff166110e9909392919063ffffffff16565b80600560008473ffffffffffffffffffffffffffffffffffffffff1673ffffffffffffffffffffffffffffffffffffffff16815260200190815260200160002060008282546109829190611a3f565b925050819055506000606460698361099a9190611818565b6109a49190611889565b9050610a246040518060400160405280601081526020017f557365722062616c616e63653a20257300000000000000000000000000000000815250600460008673ffffffffffffffffffffffffffffffffffffffff1673ffffffffffffffffffffffffffffffffffffffff1681526020019081526020016000205461116b565b610a636040518060400160405280601181526020017f526577617264206e65656465643a2025730000000000000000000000000000008152508261116b565b80600460008573ffffffffffffffffffffffffffffffffffffffff1673ffffffffffffffffffffffffffffffffffffffff168152602001908152602001600020541015610ae5576040517f08c379a0000000000000000000000000000000000000000000000000000000008152600401610adc90611cc9565b60405180910390fd5b80600460008573ffffffffffffffffffffffffffffffffffffffff1673ffffffffffffffffffffffffffffffffffffffff1681526020019081526020016000206000828254610b349190611a3f565b92505081905550610b883382600360009054906101000a900473ffffffffffffffffffffffffffffffffffffffff1673ffffffffffffffffffffffffffffffffffffffff166112079092919063ffffffff16565b3373ffffffffffffffffffffffffffffffffffffffff168373ffffffffffffffffffffffffffffffffffffffff167f1f0c6615429d1cdae0dfa233abf91d3b31cdbdd82c8081389832a61e1072f1ea8484604051610be7929190611ce9565b60405180910390a3505050565b600360009054906101000a900473ffffffffffffffffffffffffffffffffffffffff1681565b6000600460003373ffffffffffffffffffffffffffffffffffffffff1673ffffffffffffffffffffffffffffffffffffffff1681526020019081526020016000205490506000610c686105e7565b905060008060009054906101000a900460ff16600a610c8791906117cd565b8284610c939190611818565b610c9d9190611889565b905060006064609686610cb09190611818565b610cba9190611889565b905080821015610cff576040517f08c379a0000000000000000000000000000000000000000000000000000000008152600401610cf690611d5e565b60405180910390fd5b84600560003373ffffffffffffffffffffffffffffffffffffffff1673ffffffffffffffffffffffffffffffffffffffff1681526020019081526020016000206000828254610d4e9190611b4b565b92505081905550600060019054906101000a900473ffffffffffffffffffffffffffffffffffffffff1673ffffffffffffffffffffffffffffffffffffffff166340c10f1933876040518363ffffffff1660e01b8152600401610db2929190611d8d565b600060405180830381600087803b158015610dcc57600080fd5b505af1158015610de0573d6000803e3d6000fd5b505050503373ffffffffffffffffffffffffffffffffffffffff167fac59582e5396aca512fa873a2047e7f4c80f8f55d4a06cb34a78a0187f62719f86604051610e2a9190611508565b60405180910390a25050505050565b60056020528060005260406000206000915090505481565b600080600460008473ffffffffffffffffffffffffffffffffffffffff1673ffffffffffffffffffffffffffffffffffffffff1681526020019081526020016000205490506000600560008573ffffffffffffffffffffffffffffffffffffffff1673ffffffffffffffffffffffffffffffffffffffff16815260200190815260200160002054905060008103610f0c577fffffffffffffffffffffffffffffffffffffffffffffffffffffffffffffffff925050506110ad565b6000600660009054906101000a900473ffffffffffffffffffffffffffffffffffffffff1673ffffffffffffffffffffffffffffffffffffffff1663feaf968c6040518163ffffffff1660e01b815260040160a060405180830381865afa158015610f7b573d6000803e3d6000fd5b505050506040513d601f19601f82011682018060405250810190610f9f91906119c4565b5050509150506000600660009054906101000a900473ffffffffffffffffffffffffffffffffffffffff1673ffffffffffffffffffffffffffffffffffffffff1663313ce5676040518163ffffffff1660e01b8152600401602060405180830381865afa158015611014573d6000803e3d6000fd5b505050506040513d601f19601f820116820180604052508101906110389190611de2565b9050600081600a61104991906117cd565b670de0b6b3a76400008461105d9190611818565b6110679190611889565b90506000670de0b6b3a764000082876110809190611818565b61108a9190611889565b90508460648261109a9190611818565b6110a49190611889565b96505050505050505b919050565b60008054906101000a900460ff1681565b600260009054906101000a900473ffffffffffffffffffffffffffffffffffffffff1681565b611165848573ffffffffffffffffffffffffffffffffffffffff166323b872dd86868660405160240161111e93929190611e0f565b604051602081830303815290604052915060e01b6020820180517bffffffffffffffffffffffffffffffffffffffffffffffffffffffff8381831617835250505050611286565b50505050565b6112038282604051602401611181929190611ec5565b6040516020818303038152906040527fb60e72cc000000000000000000000000000000000000000000000000000000007bffffffffffffffffffffffffffffffffffffffffffffffffffffffff19166020820180517bffffffffffffffffffffffffffffffffffffffffffffffffffffffff8381831617835250505050611328565b5050565b611281838473ffffffffffffffffffffffffffffffffffffffff1663a9059cbb858560405160240161123a929190611d8d565b604051602081830303815290604052915060e01b6020820180517bffffffffffffffffffffffffffffffffffffffffffffffffffffffff8381831617835250505050611286565b505050565b600080602060008451602086016000885af1806112a9576040513d6000823e3d81fd5b3d9250600051915050600082146112c45760018114156112e0565b60008473ffffffffffffffffffffffffffffffffffffffff163b145b1561132257836040517f5274afe70000000000000000000000000000000000000000000000000000000081526004016113199190611ef5565b60405180910390fd5b50505050565b61133f81611337611342611363565b63ffffffff16565b50565b60006a636f6e736f6c652e6c6f679050600080835160208501845afa505050565b61136e819050919050565b611376611f10565b565b600080fd5b600073ffffffffffffffffffffffffffffffffffffffff82169050919050565b60006113a88261137d565b9050919050565b6113b88161139d565b81146113c357600080fd5b50565b6000813590506113d5816113af565b92915050565b6000602082840312156113f1576113f0611378565b5b60006113ff848285016113c6565b91505092915050565b60008115159050919050565b61141d81611408565b82525050565b60006020820190506114386000830184611414565b92915050565b6000819050919050565b600061146361145e6114598461137d565b61143e565b61137d565b9050919050565b600061147582611448565b9050919050565b60006114878261146a565b9050919050565b6114978161147c565b82525050565b60006020820190506114b2600083018461148e565b92915050565b6000819050919050565b6114cb816114b8565b82525050565b60006060820190506114e660008301866114c2565b6114f360208301856114c2565b61150060408301846114c2565b949350505050565b600060208201905061151d60008301846114c2565b92915050565b600061152e8261146a565b9050919050565b61153e81611523565b82525050565b60006020820190506115596000830184611535565b92915050565b611568816114b8565b811461157357600080fd5b50565b6000813590506115858161155f565b92915050565b6000602082840312156115a1576115a0611378565b5b60006115af84828501611576565b91505092915050565b600080604083850312156115cf576115ce611378565b5b60006115dd858286016113c6565b92505060206115ee85828601611576565b9150509250929050565b60006116038261146a565b9050919050565b611613816115f8565b82525050565b600060208201905061162e600083018461160a565b92915050565b600060ff82169050919050565b61164a81611634565b82525050565b60006020820190506116656000830184611641565b92915050565b7f4e487b7100000000000000000000000000000000000000000000000000000000600052601160045260246000fd5b60008160011c9050919050565b6000808291508390505b60018511156116f1578086048111156116cd576116cc61166b565b5b60018516156116dc5780820291505b80810290506116ea8561169a565b94506116b1565b94509492505050565b60008261170a57600190506117c6565b8161171857600090506117c6565b816001811461172e576002811461173857611767565b60019150506117c6565b60ff84111561174a5761174961166b565b5b8360020a9150848211156117615761176061166b565b5b506117c6565b5060208310610133831016604e8410600b841016171561179c5782820a9050838111156117975761179661166b565b5b6117c6565b6117a984848460016116a7565b925090508184048111156117c0576117bf61166b565b5b81810290505b9392505050565b60006117d8826114b8565b91506117e383611634565b92506118107fffffffffffffffffffffffffffffffffffffffffffffffffffffffffffffffff84846116fa565b905092915050565b6000611823826114b8565b915061182e836114b8565b925082820261183c816114b8565b915082820484148315176118535761185261166b565b5b5092915050565b7f4e487b7100000000000000000000000000000000000000000000000000000000600052601260045260246000fd5b6000611894826114b8565b915061189f836114b8565b9250826118af576118ae61185a565b5b828204905092915050565b600082825260208201905092915050565b7f7072696365206e6565647320746f20626520706f736974697665000000000000600082015250565b6000611901601a836118ba565b915061190c826118cb565b602082019050919050565b60006020820190508181036000830152611930816118f4565b9050919050565b600069ffffffffffffffffffff82169050919050565b61195681611937565b811461196157600080fd5b50565b6000815190506119738161194d565b92915050565b6000819050919050565b61198c81611979565b811461199757600080fd5b50565b6000815190506119a981611983565b92915050565b6000815190506119be8161155f565b92915050565b600080600080600060a086880312156119e0576119df611378565b5b60006119ee88828901611964565b95505060206119ff8882890161199a565b9450506040611a10888289016119af565b9350506060611a21888289016119af565b9250506080611a3288828901611964565b9150509295509295909350565b6000611a4a826114b8565b9150611a55836114b8565b9250828203905081811115611a6d57611a6c61166b565b5b92915050565b7f5374616c65207072696365206665656400000000000000000000000000000000600082015250565b6000611aa96010836118ba565b9150611ab482611a73565b602082019050919050565b60006020820190508181036000830152611ad881611a9c565b9050919050565b7f416d6f756e74206d757374206265206d6f7265207468616e2030000000000000600082015250565b6000611b15601a836118ba565b9150611b2082611adf565b602082019050919050565b60006020820190508181036000830152611b4481611b08565b9050919050565b6000611b56826114b8565b9150611b61836114b8565b9250828201905080821115611b7957611b7861166b565b5b92915050565b7f526570617920616d6f756e742065786365656473207573657227732064656274600082015250565b6000611bb56020836118ba565b9150611bc082611b7f565b602082019050919050565b60006020820190508181036000830152611be481611ba8565b9050919050565b7f4163636f756e74206973206e6f74206c6971756964617461626c650000000000600082015250565b6000611c21601b836118ba565b9150611c2c82611beb565b602082019050919050565b60006020820190508181036000830152611c5081611c14565b9050919050565b7f496e737566666963656e7420636f6c6c61746572616c20746f2072657761726460008201527f206c697175696461746f72000000000000000000000000000000000000000000602082015250565b6000611cb3602b836118ba565b9150611cbe82611c57565b604082019050919050565b60006020820190508181036000830152611ce281611ca6565b9050919050565b6000604082019050611cfe60008301856114c2565b611d0b60208301846114c2565b9392505050565b7f4c657373207468616e2072657175697265640000000000000000000000000000600082015250565b6000611d486012836118ba565b9150611d5382611d12565b602082019050919050565b60006020820190508181036000830152611d7781611d3b565b9050919050565b611d878161139d565b82525050565b6000604082019050611da26000830185611d7e565b611daf60208301846114c2565b9392505050565b611dbf81611634565b8114611dca57600080fd5b50565b600081519050611ddc81611db6565b92915050565b600060208284031215611df857611df7611378565b5b6000611e0684828501611dcd565b91505092915050565b6000606082019050611e246000830186611d7e565b611e316020830185611d7e565b611e3e60408301846114c2565b949350505050565b600081519050919050565b60005b83811015611e6f578082015181840152602081019050611e54565b60008484015250505050565b6000601f19601f8301169050919050565b6000611e9782611e46565b611ea181856118ba565b9350611eb1818560208601611e51565b611eba81611e7b565b840191505092915050565b60006040820190508181036000830152611edf8185611e8c565b9050611eee60208301846114c2565b9392505050565b6000602082019050611f0a6000830184611d7e565b92915050565b7f4e487b7100000000000000000000000000000000000000000000000000000000600052605160045260246000fdfea2646970667358221220adb26e17a98b500f2eefce7605357038483602c84b43f9a205e6bc7eaea5980064736f6c634300081c0033",
  "linkReferences": {},
  "deployedLinkReferences": {}
}