{
  "_format": "hh-sol-artifact-1",
  "contractName": "MockV3Aggregator",
  "sourceName": "contracts/test/MockV3Aggregator.sol",
  "abi": [
    {
      "inputs": [
        {
          "internalType": "uint8",
          "name": "_decimals",
          "type": "uint8"
        },
        {
          "internalType": "int256",
          "name": "_initialAnswer",
          "type": "int256"
        }
      ],
      "stateMutability": "nonpayable",
      "type": "constructor"
    },
    {
      "inputs": [
        {
          "internalType": "uint80",
          "name": "",
          "type": "uint80"
        }
      ],
      "name": "answers",
      "outputs": [
        {
          "internalType": "int256",
          "name": "",
          "type": "int256"
        }
      ],
      "stateMutability": "view",
      "type": "function"
    },
    {
      "inputs": [],
      "name": "decimals",
      "outputs": [
        {
          "internalType": "uint8",
          "name": "",
          "type": "uint8"
        }
      ],
      "stateMutability": "view",
      "type": "function"
    },
    {
      "inputs": [],
      "name": "description",
      "outputs": [
        {
          "internalType": "string",
          "name": "",
          "type": "string"
        }
      ],
      "stateMutability": "pure",
      "type": "function"
    },
    {
      "inputs": [
        {
          "internalType": "uint80",
          "name": "_roundId",
          "type": "uint80"
        }
      ],
      "name": "getRoundData",
      "outputs": [
        {
          "internalType": "uint80",
          "name": "roundId",
          "type": "uint80"
        },
        {
          "internalType": "int256",
          "name": "answer",
          "type": "int256"
        },
        {
          "internalType": "uint256",
          "name": "startedAt_",
          "type": "uint256"
        },
        {
          "internalType": "uint256",
          "name": "updatedAt",
          "type": "uint256"
        },
        {
          "internalType": "uint80",
          "name": "answeredInRound",
          "type": "uint80"
        }
      ],
      "stateMutability": "view",
      "type": "function"
    },
    {
      "inputs": [],
      "name": "latestAnswer",
      "outputs": [
        {
          "internalType": "int256",
          "name": "",
          "type": "int256"
        }
      ],
      "stateMutability": "view",
      "type": "function"
    },
    {
      "inputs": [],
      "name": "latestRound",
      "outputs": [
        {
          "internalType": "uint256",
          "name": "",
          "type": "uint256"
        }
      ],
      "stateMutability": "view",
      "type": "function"
    },
    {
      "inputs": [],
      "name": "latestRoundData",
      "outputs": [
        {
          "internalType": "uint80",
          "name": "roundId",
          "type": "uint80"
        },
        {
          "internalType": "int256",
          "name": "answer",
          "type": "int256"
        },
        {
          "internalType": "uint256",
          "name": "startedAt_",
          "type": "uint256"
        },
        {
          "internalType": "uint256",
          "name": "updatedAt",
          "type": "uint256"
        },
        {
          "internalType": "uint80",
          "name": "answeredInRound",
          "type": "uint80"
        }
      ],
      "stateMutability": "view",
      "type": "function"
    },
    {
      "inputs": [],
      "name": "latestRoundId",
      "outputs": [
        {
          "internalType": "uint80",
          "name": "",
          "type": "uint80"
        }
      ],
      "stateMutability": "view",
      "type": "function"
    },
    {
      "inputs": [],
      "name": "latestTimestamp",
      "outputs": [
        {
          "internalType": "uint256",
          "name": "",
          "type": "uint256"
        }
      ],
      "stateMutability": "view",
      "type": "function"
    },
    {
      "inputs": [
        {
          "internalType": "uint80",
          "name": "",
          "type": "uint80"
        }
      ],
      "name": "startedAt",
      "outputs": [
        {
          "internalType": "uint256",
          "name": "",
          "type": "uint256"
        }
      ],
      "stateMutability": "view",
      "type": "function"
    },
    {
      "inputs": [
        {
          "internalType": "uint80",
          "name": "",
          "type": "uint80"
        }
      ],
      "name": "timestamps",
      "outputs": [
        {
          "internalType": "uint256",
          "name": "",
          "type": "uint256"
        }
      ],
      "stateMutability": "view",
      "type": "function"
    },
    {
      "inputs": [
        {
          "internalType": "int256",
          "name": "_answer",
          "type": "int256"
        }
      ],
      "name": "updateAnswer",
      "outputs": [],
      "stateMutability": "nonpayable",
      "type": "function"
    },
    {
      "inputs": [],
      "name": "version",
      "outputs": [
        {
          "internalType": "uint256",
          "name": "",
          "type": "uint256"
        }
      ],
      "stateMutability": "pure",
      "type": "function"
    }
  ],
  "bytecode": "0x608060405234801561001057600080fd5b50604051610d0f380380610d0f83398181016040528101906100329190610206565b816000806101000a81548160ff021916908360ff16021790555061005b8161006260201b60201c565b50506102c7565b8060018190555042600281905550600360008154809291906100839061027f565b9190505550600354600460006101000a81548169ffffffffffffffffffff021916908369ffffffffffffffffffff1602179055508060056000600460009054906101000a900469ffffffffffffffffffff1669ffffffffffffffffffff1669ffffffffffffffffffff168152602001908152602001600020819055504260066000600460009054906101000a900469ffffffffffffffffffff1669ffffffffffffffffffff1669ffffffffffffffffffff168152602001908152602001600020819055504260076000600460009054906101000a900469ffffffffffffffffffff1669ffffffffffffffffffff1669ffffffffffffffffffff1681526020019081526020016000208190555050565b600080fd5b600060ff82169050919050565b6101ad81610197565b81146101b857600080fd5b50565b6000815190506101ca816101a4565b92915050565b6000819050919050565b6101e3816101d0565b81146101ee57600080fd5b50565b600081519050610200816101da565b92915050565b6000806040838503121561021d5761021c610192565b5b600061022b858286016101bb565b925050602061023c858286016101f1565b9150509250929050565b7f4e487b7100000000000000000000000000000000000000000000000000000000600052601160045260246000fd5b6000819050919050565b600061028a82610275565b91507fffffffffffffffffffffffffffffffffffffffffffffffffffffffffffffffff82036102bc576102bb610246565b5b600182019050919050565b610a39806102d66000396000f3fe608060405234801561001057600080fd5b50600436106100cf5760003560e01c8063668a0f021161008c5780639a6fc8f5116100665780639a6fc8f5146102065780639de02a3d1461023a578063a87a20ce1461026a578063feaf968c14610286576100cf565b8063668a0f02146101ac5780637284e416146101ca5780638205bf6a146101e8576100cf565b806311a8f413146100d4578063313ce567146100f25780634c295ca3146101105780634f72cfd01461014057806350d25bcd1461017057806354fd4d501461018e575b600080fd5b6100dc6102a8565b6040516100e991906106aa565b60405180910390f35b6100fa6102c4565b60405161010791906106e1565b60405180910390f35b61012a6004803603810190610125919061072d565b6102d5565b6040516101379190610773565b60405180910390f35b61015a6004803603810190610155919061072d565b6102ed565b60405161016791906107a7565b60405180910390f35b610178610305565b6040516101859190610773565b60405180910390f35b61019661030b565b6040516101a391906107a7565b60405180910390f35b6101b4610310565b6040516101c191906107a7565b60405180910390f35b6101d2610316565b6040516101df9190610852565b60405180910390f35b6101f0610353565b6040516101fd91906107a7565b60405180910390f35b610220600480360381019061021b919061072d565b610359565b604051610231959493929190610874565b60405180910390f35b610254600480360381019061024f919061072d565b610467565b60405161026191906107a7565b60405180910390f35b610284600480360381019061027f91906108f3565b61047f565b005b61028e6105af565b60405161029f959493929190610874565b60405180910390f35b600460009054906101000a900469ffffffffffffffffffff1681565b60008054906101000a900460ff1681565b60056020528060005260406000206000915090505481565b60076020528060005260406000206000915090505481565b60015481565b600090565b60035481565b60606040518060400160405280601081526020017f4d6f636b563341676772656761746f7200000000000000000000000000000000815250905090565b60025481565b600080600080600080600560008869ffffffffffffffffffff1669ffffffffffffffffffff16815260200190815260200160002054136103ce576040517f08c379a00000000000000000000000000000000000000000000000000000000081526004016103c59061096c565b60405180910390fd5b85600560008869ffffffffffffffffffff1669ffffffffffffffffffff16815260200190815260200160002054600760008969ffffffffffffffffffff1669ffffffffffffffffffff16815260200190815260200160002054600660008a69ffffffffffffffffffff1669ffffffffffffffffffff16815260200190815260200160002054899450945094509450945091939590929450565b60066020528060005260406000206000915090505481565b8060018190555042600281905550600360008154809291906104a0906109bb565b9190505550600354600460006101000a81548169ffffffffffffffffffff021916908369ffffffffffffffffffff1602179055508060056000600460009054906101000a900469ffffffffffffffffffff1669ffffffffffffffffffff1669ffffffffffffffffffff168152602001908152602001600020819055504260066000600460009054906101000a900469ffffffffffffffffffff1669ffffffffffffffffffff1669ffffffffffffffffffff168152602001908152602001600020819055504260076000600460009054906101000a900469ffffffffffffffffffff1669ffffffffffffffffffff1669ffffffffffffffffffff1681526020019081526020016000208190555050565b6000806000806000600460009054906101000a900469ffffffffffffffffffff1660015460076000600460009054906101000a900469ffffffffffffffffffff1669ffffffffffffffffffff1669ffffffffffffffffffff1681526020019081526020016000205460066000600460009054906101000a900469ffffffffffffffffffff1669ffffffffffffffffffff1669ffffffffffffffffffff16815260200190815260200160002054600460009054906101000a900469ffffffffffffffffffff16945094509450945094509091929394565b600069ffffffffffffffffffff82169050919050565b6106a481610685565b82525050565b60006020820190506106bf600083018461069b565b92915050565b600060ff82169050919050565b6106db816106c5565b82525050565b60006020820190506106f660008301846106d2565b92915050565b600080fd5b61070a81610685565b811461071557600080fd5b50565b60008135905061072781610701565b92915050565b600060208284031215610743576107426106fc565b5b600061075184828501610718565b91505092915050565b6000819050919050565b61076d8161075a565b82525050565b60006020820190506107886000830184610764565b92915050565b6000819050919050565b6107a18161078e565b82525050565b60006020820190506107bc6000830184610798565b92915050565b600081519050919050565b600082825260208201905092915050565b60005b838110156107fc5780820151818401526020810190506107e1565b60008484015250505050565b6000601f19601f8301169050919050565b6000610824826107c2565b61082e81856107cd565b935061083e8185602086016107de565b61084781610808565b840191505092915050565b6000602082019050818103600083015261086c8184610819565b905092915050565b600060a082019050610889600083018861069b565b6108966020830187610764565b6108a36040830186610798565b6108b06060830185610798565b6108bd608083018461069b565b9695505050505050565b6108d08161075a565b81146108db57600080fd5b50565b6000813590506108ed816108c7565b92915050565b600060208284031215610909576109086106fc565b5b6000610917848285016108de565b91505092915050565b7f4e6f20646174612070726573656e740000000000000000000000000000000000600082015250565b6000610956600f836107cd565b915061096182610920565b602082019050919050565b6000602082019050818103600083015261098581610949565b9050919050565b7f4e487b7100000000000000000000000000000000000000000000000000000000600052601160045260246000fd5b60006109c68261078e565b91507fffffffffffffffffffffffffffffffffffffffffffffffffffffffffffffffff82036109f8576109f761098c565b5b60018201905091905056fea2646970667358221220dcb6004b528bf19268b823fa7021e7c0a30f728f14d25b5a452e70d4c338472664736f6c634300081c0033",
  "linkReferences": {},
  "deployedLinkReferences": {}
}